:100000000C9434000C943E000C943E000C943E0082
:100010000C943E000C943E000C943E000C943E0068
:100020000C943E000C943E000C943E000C943E0058
:100030000C943E000C943E000C943E000C943E0048
:100040000C943E000C943E000C943E000C943E0038
:100050000C943E000C943E000C943E000C943E0028
:100060000C943E000C943E0011241FBECFEFD8E04C
:10007000DEBFCDBF0E9440000C945F000C940000D6
:10008000569A83E884BD83E085BD90E080E087BD1B
:10009000EFE3FCE93197F1F700C00000019681150C
:1000A000F1E09F07A1F78FEF90E087BDEFE3FCE958
:1000B0003197F1F700C000000197B8F7E6CFF89448
:0200C000FFCF70
:00000001FF
