:100000000C9434000C943E000C943E000C943E0082
:100010000C943E000C943E000C943E000C943E0068
:100020000C943E000C943E000C943E000C943E0058
:100030000C943E000C943E000C943E000C943E0048
:100040000C943E000C943E000C943E000C943E0038
:100050000C943E000C943E000C943E000C943E0028
:100060000C943E000C943E0011241FBECFEFD8E04C
:10007000DEBFCDBF0E945E000C94D8000C9400003F
:10008000B0E0A0E09C01AD0183E0220F331F441FCC
:10009000551F8A95D1F760E074E284EF90E00E94EA
:1000A000B6002150310930938700209386003695A1
:1000B000279530938900209388000895219A82E83B
:1000C000809380008AE180938100AFE9BFE02FEC4C
:1000D00037E087EE93E0E4E3F5E06AE972E043EFAE
:1000E00051E0B0938700A09386003093890020935D
:1000F00088001FEFCFE0D7E21150C040D040E1F7B9
:1001000000C0000030938700209386009093890000
:10011000809388001FEFCFE0D7E21150C040D0405D
:10012000E1F700C00000F0938700E0938600709331
:100130008900609388001FEFCFE0D7E21150C040E4
:10014000D040E1F700C000009093870080938600C4
:1001500050938900409388001FEFCFE0D7E2115001
:10016000C040D040E1F700C00000BBCFA1E21A2E92
:10017000AA1BBB1BFD010DC0AA1FBB1FEE1FFF1F4B
:10018000A217B307E407F50720F0A21BB30BE40B9B
:10019000F50B661F771F881F991F1A9469F76095E2
:1001A0007095809590959B01AC01BD01CF0108959C
:0401B000F894FFCFF1
:00000001FF
