:100000000C9434000C9449000C9449000C94490061
:100010000C9449000C9449000C9449000C9449003C
:100020000C9449000C9449000C9449000C9449002C
:100030000C9449000C9449000C9449000C9449001C
:100040000C9449000C9449000C9449000C9449000C
:100050000C9449000C9449000C9449000C944900FC
:100060000C9449000C94490011241FBECFEFD8E036
:10007000DEBFCDBF11E0A0E0B1E0E2E1F2E002C0FE
:1000800005900D92A830B107D9F70E948E000C940C
:1000900007010C940000219A82E0809380008AE19D
:1000A000809381000895E0E8F0E08081806880839B
:1000B0000895E0E8F0E080818F73808329980895A7
:1000C000CF93C62FB0E0A0E09C01AD0183E0220FEA
:1000D000331F441F551F8A95D1F760E074E284EF07
:1000E00090E00E94CB00DA01C9010197A109B10992
:1000F0009093870080938600AC2FB0E00E94ED00C3
:1001000024E630E040E050E00E94CB00215031096D
:100110003093890020938800CF910895CF93DF9387
:10012000CDB7DEB728970FB6F894DEBF0FBECDBFB0
:1001300088E0E0E0F1E0DE01119601900D928A95F1
:10014000E1F70E944B007E0129E0E20EF11C8E01D6
:100150000F5F1F4F62E3F801819191918F010E941F
:1001600060000E945300FFEF2DE282E2F150204038
:100170008040E1F700C000000E9459009FEFE3ECCF
:10018000F9E09150E040F040E1F700C000000E15AA
:100190001F0501F7DCCFA1E21A2EAA1BBB1BFD0134
:1001A0000DC0AA1FBB1FEE1FFF1FA217B307E40756
:1001B000F50720F0A21BB30BE40BF50B661F771FAE
:1001C000881F991F1A9469F760957095809590958E
:1001D0009B01AC01BD01CF0108950E94F800A59FCD
:1001E000900DB49F900DA49F800D911D1124089532
:1001F000A29FB001B39FC001A39F700D811D112468
:10020000911DB29F700D811D1124911D0895F894C8
:02021000FFCF1E
:08021200F401E803DC05D0074C
:00000001FF
