:100000000C9434000C943E000C943E000C943E0082
:100010000C943E000C943E000C943E000C943E0068
:100020000C943E000C943E000C943E000C943E0058
:100030000C943E000C943E000C943E000C943E0048
:100040000C943E000C943E000C943E000C943E0038
:100050000C943E000C943E000C943E000C943E0028
:100060000C943E000C943E0011241FBECFEFD8E04C
:10007000DEBFCDBF0E9440000C9465000C940000D0
:100080008FE384B957985F9A21E090E089B1881F87
:100090008827881F8217D1F33FEF40E782E0315075
:1000A00040408040E1F700C0000089B1881F8827E8
:1000B000881F213041F4811105C09F5F292F2F73C4
:0E00C00025B901C081E0282FE1CFF894FFCFD1
:00000001FF
