:100000000C9434000C9446000C9446000C9446006A
:100010000C9446000C9448000C9446000C94460046
:100020000C9446000C9446000C9446000C94460038
:100030000C9446000C9446000C9446000C94460028
:100040000C9446000C9446000C9446000C94460018
:100050000C9446000C9446000C9446000C94460008
:100060000C9446000C94460011241FBECFEFD8E03C
:10007000DEBFCDBF21E0A0E0B1E001C01D92A13004
:10008000B207E1F70E9457000C9485000C94000021
:100090001F920F920FB60F9211248F9381E08093DD
:1000A00000018F910F900FBE0F901F901895209A0E
:1000B00057985F9A8091680084608093680080916F
:1000C0006D00806880936D00789421E0809100013C
:1000D0008823E1F33FEF80E792E031508040904089
:1000E000E1F700C0000089B190E0880F892F881FD8
:1000F000990B211105C0813019F425B1282725B9A4
:0E010000DA9A10920001282FE1CFF894FFCF79
:00000001FF
