:100000000C9434000C9457000C9446000C94460059
:100010000C9446000C9448000C9446000C94460046
:100020000C9446000C9446000C9446000C94460038
:100030000C9446000C9446000C9446000C94460028
:100040000C9446000C9446000C9446000C94460018
:100050000C9446000C9446000C9446000C94460008
:100060000C9446000C94460011241FBECFEFD8E03C
:10007000DEBFCDBF21E0A0E0B1E001C01D92A33002
:10008000B207E1F70E9466000C94BB000C940000DC
:100090001F920F920FB60F9211248F9381E08093DD
:1000A00001018F910F900FBE0F901F9018951F9216
:1000B0000F920FB60F9211248F9381E0809300016D
:1000C0008F910F900FBE0F901F9018958FE384B9FA
:1000D0008AB18B778AB98BB184688BB980916900BA
:1000E000826080936900E89A8091680084608093C0
:1000F000680080916D00806880936D007894809195
:1001000001018823C9F02FEF80E792E02150804061
:100110009040E1F700C000004F990BC080910201B0
:10012000880F80930201809102018F7385B94F9BE4
:10013000FECFDA9A10920101809100018823F9F232
:100140002FEF80E792E0215080409040E1F700C01F
:1001500000004A990CC080910201880F8160809351
:100160000201809102018F7385B94A9BFECFE09A0C
:0A01700010920001C4CFF894FFCFF5
:00000001FF
