:100000000C9434000C9449000C9449000C94490061
:100010000C9449000C9449000C9449000C9449003C
:100020000C9449000C9449000C9449000C9449002C
:100030000C9449000C9449000C9449000C9449001C
:100040000C9449000C9449000C9449000C9449000C
:100050000C9449000C9449000C9449000C944900FC
:100060000C9449000C94490011241FBECFEFD8E036
:10007000DEBFCDBF11E0A0E0B1E0E0E5F2E002C0FC
:1000800005900D92AA34B107D9F70E94AA000C94EA
:1000900026010C9400001092C0001092C50087E663
:1000A0008093C40088E18093C10086E08093C20001
:1000B00008959091C00095FFFCCF8093C6000895ED
:1000C0008091C00087FFFCCF8091C6000895CF9338
:1000D000DF93EC018991811103C0DF91CF910895E5
:1000E0000E945900F7CF9FEB980F9A3150F4082ED9
:1000F000000C990BCE976AE170E00E94FE008F5BC6
:1001000008959FE9980F9A3150F4082E000C990B2E
:100110008E5591096AE170E00E94FE008F590895A2
:10012000EF92FF920F931F93CF937C01C0E0870162
:100130000C0F111DF8018081811106C0CF911F9114
:100140000F91FF90EF9008950E947300F801808353
:10015000CF5FEDCFCF93DF93CDB7DEB7C456D109D4
:100160000FB6F894DEBF0FBECDBF0E944B008BE1EF
:1001700091E00E94670080E091E00E9467008EE1BC
:1001800091E00E94670010E00E9460008D3011F045
:100190008A30C1F41123C1F3E1E0F0E0EC0FFD1F60
:1001A000E10FF11D1082CE0101960E94900083E3C1
:1001B00091E00E946700CE0101960E9467008BE1EA
:1001C00091E0DBCF883011F08F3769F41123E1F231
:1001D000115088E00E94590080E20E94590088E096
:1001E0000E945900D1CF133678F6E1E0F0E0EC0F31
:1001F000FD1FE10FF11D80831F5FF2CF97FB072EDC
:1002000016F4009407D077FD09D00E94120107FC74
:1002100005D03EF4909581959F4F08957095619516
:100220007F4F0895AA1BBB1B51E107C0AA1FBB1F2C
:10023000A617B70710F0A61BB70B881F991F5A9572
:10024000A9F780959095BC01CD010895F894FFCF52
:100250002020202020204361657361722043697053
:10026000686572202D204B657920330D0A000D0A38
:10027000456E74657220612073656E74656E63658A
:100280003A20000D0A456E637279707465642073BC
:0A029000656E74656E63653A200028
:00000001FF
