:100000000C9434000C9449000C9449000C94490061
:100010000C9449000C9449000C9449000C9449003C
:100020000C9449000C9449000C9449000C9449002C
:100030000C9449000C9449000C9449000C9449001C
:100040000C9449000C9449000C9449000C9449000C
:100050000C9449000C9449000C9449000C944900FC
:100060000C9449000C94490011241FBECFEFD8E036
:10007000DEBFCDBF11E0A0E0B1E0E8E1F1E002C0F9
:1000800005900D92A033B107D9F70E9473000C942C
:100090008A000C9400001092C0001092C50087E600
:1000A0008093C40088E18093C10086E08093C20001
:1000B00008959091C00095FFFCCF8093C6000895ED
:1000C0008091C00087FFFCCF8091C6000895CF9338
:1000D000DF93EC018991811103C0DF91CF910895E5
:1000E0000E945900F7CF0E944B0085E191E00E94E9
:1000F000670080E091E00E94670088E191E00E9443
:10010000670085E191E00E9467000E9460000E9404
:080110005900FBCFF894FFCF6A
:10011800312E204368616E757468202D20452F327A
:10012800312F3030370D0A00322E204C6973697434
:100138006861202D20452F32312F3030390D0A00CB
:00000001FF
