:100000000C9434000C9449000C9449000C94490061
:100010000C9449000C9449000C9449000C9449003C
:100020000C9449000C9449000C9449000C9449002C
:100030000C9449000C9449000C9449000C9449001C
:100040000C9449000C9449000C9449000C9449000C
:100050000C9449000C9449000C9449000C944900FC
:100060000C9449000C94490011241FBECFEFD8E036
:10007000DEBFCDBF11E0A0E0B1E0E0E7F2E002C0FA
:1000800005900D92AE3CB107D9F70E94AA000C94DE
:1000900036010C9400001092C0001092C50087E653
:1000A0008093C40088E18093C10086E08093C20001
:1000B00008959091C00095FFFCCF8093C6000895ED
:1000C0008091C00087FFFCCF8091C6000895CF9338
:1000D000DF93EC018991811103C0DF91CF910895E5
:1000E0000E945900F7CF9FEB980F9A3150F4082ED9
:1000F000000C990BCE976AE170E00E940E018F5BB5
:1001000008959FE9980F9A3150F4082E000C990B2E
:100110008E5591096AE170E00E940E018F59089591
:10012000EF92FF920F931F93CF937C01C0E0870162
:100130000C0F111DF8018081811106C0CF911F9114
:100140000F91FF90EF9008950E947300F801808353
:10015000CF5FEDCFCF93DF93CDB7DEB7C456D109D4
:100160000FB6F894DEBF0FBECDBF0E944B008EE9E4
:1001700091E00E94670080E091E00E9467008BE2BE
:1001800091E00E94670080E091E00E94670089E4AE
:1001900091E00E94670085E791E00E94670081EA94
:1001A00091E00E94670010E00E9460008D3011F025
:1001B0008A30C1F41123C1F3E1E0F0E0EC0FFD1F40
:1001C000E10FF11D1082CE0101960E94900086EB96
:1001D00091E00E946700CE0101960E9467008EE9BF
:1001E00091E0DBCF883011F08F3769F41123E1F211
:1001F000115088E00E94590080E20E94590088E076
:100200000E945900D1CF133678F6E1E0F0E0EC0F10
:10021000FD1FE10FF11D80831F5FF2CF97FB072EBB
:1002200016F4009407D077FD09D00E94220107FC44
:1002300005D03EF4909581959F4F089570956195F6
:100240007F4F0895AA1BBB1B51E107C0AA1FBB1F0C
:10025000A617B70710F0A61BB70B881F991F5A9552
:10026000A9F780959095BC01CD010895F894FFCF32
:100270003D3D3D3D3D3D3D3D3D3D3D3D3D3D3D3DAE
:100280003D3D3D3D3D3D3D3D3D3D3D3D3D3D3D3D9E
:100290003D3D3D3D3D3D3D3D0D0A002020202020BF
:1002A0002043616573617220436970686572202D17
:1002B000204B657920330D0A004F6E6C7920616CFC
:1002C00070686162657469632063686172616374F8
:1002D0006572732061726520656E637279707465F2
:1002E000642E0D0A004E756D6265727320616E6436
:1002F0002070756E6374756174696F6E2072656DC0
:1003000061696E20756E6368616E6765642E0D0AA3
:10031000000D0A456E74657220612073656E746508
:100320006E63653A20000D0A456E637279707465DC
:0E033000642073656E74656E63653A2000008C
:00000001FF
