:100000000C9434000C9449000C9449000C94490061
:100010000C9449000C9449000C9449000C9449003C
:100020000C9449000C9449000C9449000C9449002C
:100030000C9449000C9449000C9449000C9449001C
:100040000C9449000C9449000C9449000C9449000C
:100050000C9449000C9449000C9449000C944900FC
:100060000C9449000C94490011241FBECFEFD8E036
:10007000DEBFCDBF11E0A0E0B1E0E8E1F1E002C0F9
:1000800005900D92AC36B107D9F70E9473000C941D
:100090008A000C9400001092C0001092C50087E600
:1000A0008093C40088E18093C10086E08093C20001
:1000B00008959091C00095FFFCCF8093C6000895ED
:1000C0008091C00087FFFCCF8091C6000895CF9338
:1000D000DF93EC018991811103C0DF91CF910895E5
:1000E0000E945900F7CF0E944B008AE391E00E94E2
:1000F000670080E091E00E9467008BE191E00E9440
:1001000067008DE391E00E9467000E9460000E94FA
:080110005900FBCFF894FFCF6A
:10011800434F333231204C61622036202D20457800
:1001280065726369736520310D0A00555341525455
:1001380020696E697469616C697A656420617420EC
:100148003936303020626175642E0D0A00456E74B0
:100158006572206368617261637465727320746F7D
:10016800207465737420746865206563686F206601
:0C017800756E6374696F6E3A0D0A00002A
:00000001FF
