:100000000C9434000C943E000C943E000C943E0082
:100010000C943E000C943E000C943E000C943E0068
:100020000C943E000C943E000C943E000C943E0058
:100030000C943E000C9440000C943E000C943E0046
:100040000C943E000C943E000C943E000C943E0038
:100050000C943E000C943E000C943E000C943E0028
:100060000C943E000C943E0011241FBECFEFD8E04C
:10007000DEBFCDBF0E9467000C94A4000C9400006A
:100080001F920F920FB60F9211248F939F938CEDB6
:100090009BE0909385008093840085B190E289274E
:1000A00085B99F918F910F900FBE0F901F9018955B
:1000B0008CED9BE0909385008093840010928000EB
:1000C00084E08093810081E080936F00089584B183
:1000D0008F6284B90E945800789441E050E030E08B
:1000E00020E085B1807FBA01022E01C0660F0A941C
:1000F000EAF7862B85B96FEF81EE94E0615080407E
:100100009040E1F700C000002F5F3F4F24303105E1
:1001100041F785B1807F846085B92FEF61EE84E07F
:10012000215060408040E1F700C0000085B1807F31
:10013000826085B99FEF21EE64E0915020406040DD
:0C014000E1F700C00000CBCFF894FFCF27
:00000001FF
