:100000000C9434000C9446000C9446000C9446006A
:100010000C9446000C9446000C9446000C94460048
:100020000C9446000C9446000C9446000C94460038
:100030000C9446000C9467000C9446000C94460007
:100040000C9448000C9446000C9446000C94460016
:100050000C9446000C9446000C9446000C94460008
:100060000C9446000C94460011241FBECFEFD8E03C
:10007000DEBFCDBF21E0A0E0B1E001C01D92A13004
:10008000B207E1F70E9497000C94A0000C940000C6
:100090001F920F920FB60F9211248F939F9384E6B5
:1000A00086BD809100018F5F8093000180910001E7
:1000B000853030F085B191E0892785B91092000133
:1000C0009F918F910F900FBE0F901F9018951F92C8
:1000D0000F920FB60F9211248F939F938EEE95E897
:1000E000909385008093840085B192E0892785B93B
:1000F0009F918F910F900FBE0F901F90189584E6DF
:1001000086BD14BC85E085BD81E080936E000895B6
:100110008EEE95E890938500809384001092800085
:1001200084E08093810081E080936F00089584B122
:10013000836084B90E947F000E9488007894FFCF7A
:04014000F894FFCF61
:00000001FF
