:100000000C9434000C9446000C9446000C9446006A
:100010000C9446000C9446000C9446000C94460048
:100020000C9446000C9446000C9446000C94460038
:100030000C9446000C9446000C9446000C94460028
:100040000C9448000C9446000C9446000C94460016
:100050000C9446000C9446000C9446000C94460008
:100060000C9446000C94460011241FBECFEFD8E03C
:10007000DEBFCDBF21E0A0E0B1E001C01D92A13004
:10008000B207E1F70E9471000C9475000C94000017
:100090001F920F920FB60F9211248F939F9384E6B5
:1000A00086BD809100018F5F8093000180910001E7
:1000B0008A3030F085B190E2892785B9109200012D
:1000C0009F918F910F900FBE0F901F90189584E60F
:1000D00086BD14BC85E085BD81E080936E00789478
:0E00E0000895259A0E946700FFCFF894FFCF85
:00000001FF
