:100000000C9434000C943E000C943E000C943E0082
:100010000C943E000C943E000C943E000C943E0068
:100020000C943E000C943E000C943E000C943E0058
:100030000C943E000C943E000C943E000C943E0048
:100040000C943E000C943E000C943E000C943E0038
:100050000C943E000C943E000C943E000C943E0028
:100060000C943E000C943E0011241FBECFEFD8E04C
:10007000DEBFCDBF0E9455000C945D000C940000C3
:1000800016BC14BC85E085BDA89BFECF15BC81E0E5
:1000900085BB0895CF93DF93CFE1D0E00E9440006D
:1000A0002197E1F7DF91CF910895259AC0E285B1BC
:0E00B0008C2785B90E944A00FACFF894FFCF42
:00000001FF
