:100000000C9434000C9449000C9449000C94490061
:100010000C9449000C9449000C9449000C9449003C
:100020000C9449000C9449000C9449000C9449002C
:100030000C9449000C944B000C9449000C9449001A
:100040000C9449000C9449000C9449000C9449000C
:100050000C9449000C9449000C9449000C944900FC
:100060000C9449000C94490011241FBECFEFD8E036
:10007000DEBFCDBF11E0A0E0B1E0E2E9F1E002C0F7
:1000800005900D92A630B107D9F70E9499000C9403
:10009000C7000C9400001F920F920FB60F9211240C
:1000A0008F939F938CED9BE09093850080938400C9
:1000B00085B190E2892785B99F918F910F900FBEEE
:1000C0000F901F9018958CED9BE090938500809386
:1000D00084001092800084E08093810081E080930E
:1000E0006F0078940895CF93DF9300D000D0CDB700
:1000F000DEB719821A821B821C8289819A81AB81A8
:10010000BC818035934CA105B1053CF00F900F9058
:100110000F900F90DF91CF91089589819A81AB81E3
:10012000BC810196A11DB11D89839A83AB83BC83D9
:10013000E4CFCF93DF9300D000D000D0CDB7DEB7AF
:1001400084B18F6284B90E94630086E0E0E0F1E050
:10015000DE01119601900D928A95E1F710E000E022
:1001600085B1807F85B985B1E1E0F0E0EC0FFD1F3E
:10017000E00FF11F9081892B85B90F5F1F4F06306B
:10018000110514F010E000E00E947300E9CFF8942C
:02019000FFCF9F
:0601920001020408040252
:00000001FF
