:100000000C9434000C943E000C943E000C943E0082
:100010000C943E000C943E000C943E000C943E0068
:100020000C943E000C943E000C943E000C943E0058
:100030000C943E000C943E000C943E000C943E0048
:100040000C943E000C943E000C943E000C943E0038
:100050000C943E000C943E000C943E000C943E0028
:100060000C943E000C943E0011241FBECFEFD8E04C
:10007000DEBFCDBF0E9440000C9492000C940000A3
:1000800084B18F6084B985B1807F816085B92FEF9D
:1000900083EC99E0215080409040E1F700C00000DF
:1000A00085B1807F826085B92FEF83EC99E0215084
:1000B00080409040E1F700C0000085B1807F8460FF
:1000C00085B92FEF83EC99E0215080409040E1F713
:1000D00000C0000085B1807F886085B92FEF83EC78
:1000E00099E0215080409040E1F700C0000085B1C8
:1000F000807F846085B92FEF83EC99E021508040A8
:100100009040E1F700C0000085B1807F826085B932
:100110002FEF83EC99E0215080409040E1F700C040
:080120000000B1CFF894FFCFFD
:00000001FF
