:100000000C9434000C943E000C943E000C943E0082
:100010000C943E000C943E000C943E000C943E0068
:100020000C943E000C943E000C943E000C943E0058
:100030000C943E000C943E000C943E000C943E0048
:100040000C943E000C943E000C943E000C943E0038
:100050000C943E000C943E000C943E000C943E0028
:100060000C943E000C943E0011241FBECFEFD8E04C
:10007000DEBFCDBF0E9458000C9460000C940000BD
:1000800081E680937C0087E880937A0008958091D0
:100090007A00806480937A0080917A0084FFFCCF9C
:1000A00080917A00806180937A0080917900089530
:1000B0008FEF8AB90E9440000E9447008BB9FCCFA5
:0400C000F894FFCFE2
:00000001FF
