:100000000C9434000C943E000C943E000C943E0082
:100010000C943E000C943E000C943E000C943E0068
:100020000C943E000C943E000C943E000C943E0058
:100030000C943E000C943E000C943E000C943E0048
:100040000C943E000C943E000C943E000C943E0038
:100050000C943E000C943E000C943E000C943E0028
:100060000C943E000C943E0011241FBECFEFD8E04C
:10007000DEBFCDBF0E9459000C9465000C940000B7
:1000800010927C0087E880937A00089580917A002E
:10009000806480937A0080917A0084FFFCCF809105
:1000A0007A00806180937A00809178009091790045
:1000B0000895259A0E9440000E94460081159240B2
:0E00C00010F42D9AF9CF2D98F7CFF894FFCFBA
:00000001FF
