:100000000C9434000C9449000C9449000C94490061
:100010000C9449000C9449000C9449000C9449003C
:100020000C9449000C9449000C9449000C9449002C
:100030000C9449000C9449000C9449000C9449001C
:100040000C9449000C9449000C9449000C9449000C
:100050000C9449000C9449000C9449000C944900FC
:100060000C9449000C94490011241FBECFEFD8E036
:10007000DEBFCDBF11E0A0E0B1E0E0EBF1E002C0F7
:1000800005900D92A835B107D9F70E949D000C94F8
:10009000D6000C9400001092C0001092C50087E6B4
:1000A0008093C40088E08093C10086E08093C20002
:1000B00008959091C00095FFFCCF8093C6000895ED
:1000C000CF93DF93EC018991811103C0DF91CF9130
:1000D00008950E945900F7CFF999FECF92BD81BDD6
:1000E000F89A80B508958F708A3018F4805D0C946A
:1000F0005900895CFCCFCF93C82F82958F700E94E6
:1001000073008C2FCF910C947300CF93DF93EC018D
:100110008D2F82958F700E9473008D2F0E94730027
:10012000CE0124E0969587952A95E1F70E94730009
:100130008C2FDF91CF910C9473000E944B0080E0D4
:1001400091E00E94600085E191E00E9460008BE2F6
:1001500091E00E946000D0E0C0E0CE010E946C00FF
:10016000182FCE010E94850081E491E00E9460007A
:10017000812F0E947B0082E491E00E94600080EE6B
:10018000810F8F3588F4812F0E9459008EE391E012
:100190000E9460002196C11584E0D807F1F687E43B
:1001A00091E00E946000FFCF8EE2EECFF894FFCF87
:1001B0000D0A454550524F4D20636F6E74656E7445
:1001C000733A0D0A004164647265737320204865B8
:1001D00078202041534349490D0A002D2D2D2D2D06
:1001E0002D2D2D2D2D2D2D2D2D2D2D2D2D2D0D0A82
:1001F00000202020202000456E64206F66204545A9
:0802000050524F4D2E0D0A0073
:00000001FF
