:100000000C9434000C9451000C9451000C94510049
:100010000C9451000C9451000C9451000C9451001C
:100020000C9451000C9451000C9451000C9451000C
:100030000C9451000C9451000C9451000C945100FC
:100040000C9451000C9451000C9451000C945100EC
:100050000C9451000C9451000C9451000C945100DC
:100060000C9451000C94510011241FBECFEFD8E026
:10007000DEBFCDBF11E0A0E0B1E0EAE7F1E002C0F1
:1000800005900D92AA33B107D9F725E0AAE3B1E0B4
:1000900001C01D92AA33B207E1F70E9486000C94BA
:1000A000BB000C9400001092C0001092C50087E6BF
:1000B0008093C40088E18093C10086E08093C200F1
:1000C00008959091C00095FFFCCF8093C6000895DD
:1000D0008091C00087FFFCCF8091C6000895CF9328
:1000E000DF93EC018991811103C0DF91CF910895D5
:1000F0000E946100F7CFF999FECF92BD81BD60BD2E
:100100008FB7F894FA9AF99A8FBF08950E94530016
:1001100080E091E00E946F008AE3E82E81E0F82EF3
:10012000E70110E000E00E9468008A3009F48DE0E9
:1001300089930F5F1F4F8D30B9F486E391E00E94E1
:100140006F00D0E0C0E0F70161917F01CE010E9415
:100150007B0021960C171D07B1F7F999FECF8DE1B1
:1001600091E00E946F00FFCF0E946100011584E0C2
:0A0170001807C9F6E6CFF894FFCF98
:10017A000D0A456E74657220616E204153434949E8
:10018A002073656E74656E63653A0D0A0053656E79
:10019A0074656E636520736176656420746F2045AB
:0A01AA004550524F4D2E0D0A000083
:00000001FF
